{
  "contractName": "Vote5",
  "abi": [
    {
      "inputs": [
        {
          "internalType": "uint256",
          "name": "",
          "type": "uint256"
        }
      ],
      "name": "candidateNames",
      "outputs": [
        {
          "internalType": "string",
          "name": "",
          "type": "string"
        }
      ],
      "stateMutability": "view",
      "type": "function",
      "constant": true
    },
    {
      "inputs": [],
      "name": "totalCandidates",
      "outputs": [
        {
          "internalType": "uint8",
          "name": "",
          "type": "uint8"
        }
      ],
      "stateMutability": "view",
      "type": "function",
      "constant": true
    },
    {
      "inputs": [
        {
          "internalType": "address",
          "name": "",
          "type": "address"
        }
      ],
      "name": "totalVotesPerESP",
      "outputs": [
        {
          "internalType": "uint8",
          "name": "",
          "type": "uint8"
        }
      ],
      "stateMutability": "view",
      "type": "function",
      "constant": true
    },
    {
      "inputs": [
        {
          "internalType": "uint256",
          "name": "",
          "type": "uint256"
        }
      ],
      "name": "voteRecords",
      "outputs": [
        {
          "internalType": "uint8",
          "name": "candidate",
          "type": "uint8"
        },
        {
          "internalType": "uint256",
          "name": "timestamp",
          "type": "uint256"
        },
        {
          "internalType": "address",
          "name": "esp8266Id",
          "type": "address"
        }
      ],
      "stateMutability": "view",
      "type": "function",
      "constant": true
    },
    {
      "inputs": [
        {
          "internalType": "uint256",
          "name": "",
          "type": "uint256"
        }
      ],
      "name": "votes",
      "outputs": [
        {
          "internalType": "uint8",
          "name": "",
          "type": "uint8"
        }
      ],
      "stateMutability": "view",
      "type": "function",
      "constant": true
    },
    {
      "inputs": [
        {
          "internalType": "uint8",
          "name": "position",
          "type": "uint8"
        },
        {
          "internalType": "address",
          "name": "esp8266Id",
          "type": "address"
        }
      ],
      "name": "vote",
      "outputs": [],
      "stateMutability": "nonpayable",
      "type": "function"
    },
    {
      "inputs": [
        {
          "internalType": "uint8",
          "name": "candidateIndex",
          "type": "uint8"
        }
      ],
      "name": "getVotesForCandidate",
      "outputs": [
        {
          "internalType": "uint8",
          "name": "",
          "type": "uint8"
        }
      ],
      "stateMutability": "view",
      "type": "function",
      "constant": true
    },
    {
      "inputs": [
        {
          "internalType": "address",
          "name": "espId",
          "type": "address"
        }
      ],
      "name": "getVotesByESP",
      "outputs": [
        {
          "internalType": "uint8",
          "name": "",
          "type": "uint8"
        }
      ],
      "stateMutability": "view",
      "type": "function",
      "constant": true
    },
    {
      "inputs": [],
      "name": "getVoteRecords",
      "outputs": [
        {
          "components": [
            {
              "internalType": "uint8",
              "name": "candidate",
              "type": "uint8"
            },
            {
              "internalType": "uint256",
              "name": "timestamp",
              "type": "uint256"
            },
            {
              "internalType": "address",
              "name": "esp8266Id",
              "type": "address"
            }
          ],
          "internalType": "struct Vote5.VoteDetails[]",
          "name": "",
          "type": "tuple[]"
        }
      ],
      "stateMutability": "view",
      "type": "function",
      "constant": true
    },
    {
      "inputs": [],
      "name": "getCandidateNames",
      "outputs": [
        {
          "internalType": "string[8]",
          "name": "",
          "type": "string[8]"
        }
      ],
      "stateMutability": "view",
      "type": "function",
      "constant": true
    }
  ],
  "bytecode": "0x60806040526040518061010001604052806040518060400160405280600b81526020017f43616e646964617465203100000000000000000000000000000000000000000081525081526020016040518060400160405280600b81526020017f43616e646964617465203200000000000000000000000000000000000000000081525081526020016040518060400160405280600b81526020017f43616e646964617465203300000000000000000000000000000000000000000081525081526020016040518060400160405280600b81526020017f43616e646964617465203400000000000000000000000000000000000000000081525081526020016040518060400160405280600b81526020017f43616e646964617465203500000000000000000000000000000000000000000081525081526020016040518060400160405280600b81526020017f43616e646964617465203600000000000000000000000000000000000000000081525081526020016040518060400160405280600b81526020017f43616e646964617465203700000000000000000000000000000000000000000081525081526020016040518060400160405280600b81526020017f43616e64696461746520380000000000000000000000000000000000000000008152508152506001906008620001f89291906200020d565b503480156200020657600080fd5b50620003e9565b826008810192821562000254579160200282015b82811115620002535782518290805190602001906200024292919062000267565b509160200191906001019062000221565b5b509050620002639190620002f8565b5090565b8280546200027590620003b4565b90600052602060002090601f016020900481019282620002995760008555620002e5565b82601f10620002b457805160ff1916838001178555620002e5565b82800160010185558215620002e5579182015b82811115620002e4578251825591602001919060010190620002c7565b5b509050620002f4919062000320565b5090565b5b808211156200031c57600081816200031291906200033f565b50600101620002f9565b5090565b5b808211156200033b57600081600090555060010162000321565b5090565b5080546200034d90620003b4565b6000825580601f1062000361575062000382565b601f01602090049060005260206000209081019062000381919062000320565b5b50565b7f4e487b7100000000000000000000000000000000000000000000000000000000600052602260045260246000fd5b60006002820490506001821680620003cd57607f821691505b602082108103620003e357620003e262000385565b5b50919050565b610fc880620003f96000396000f3fe608060405234801561001057600080fd5b506004361061009e5760003560e01c80638e8710e2116100665780638e8710e214610171578063a812b2ca146101a1578063b5001c86146101bf578063b81c6453146101ef578063cff81e801461020b5761009e565b8063268b8c69146100a35780633866965c146100d55780635df81330146100f357806372b9d616146101235780638287e42f14610141575b600080fd5b6100bd60048036038101906100b89190610897565b61023b565b6040516100cc93929190610930565b60405180910390f35b6100dd6102a2565b6040516100ea9190610967565b60405180910390f35b61010d60048036038101906101089190610897565b6102a7565b60405161011a9190610967565b60405180910390f35b61012b6102d1565b6040516101389190610ad1565b60405180910390f35b61015b60048036038101906101569190610897565b61039e565b6040516101689190610b3d565b60405180910390f35b61018b60048036038101906101869190610b8b565b610441565b6040516101989190610967565b60405180910390f35b6101a9610497565b6040516101b69190610cd6565b60405180910390f35b6101d960048036038101906101d49190610b8b565b610573565b6040516101e69190610967565b60405180910390f35b61020960048036038101906102049190610d24565b610593565b005b61022560048036038101906102209190610d64565b610798565b6040516102329190610967565b60405180910390f35b6009818154811061024b57600080fd5b90600052602060002090600302016000915090508060000160009054906101000a900460ff16908060010154908060020160009054906101000a900473ffffffffffffffffffffffffffffffffffffffff16905083565b600881565b600081600881106102b757600080fd5b60209182820401919006915054906101000a900460ff1681565b6102d9610834565b6001600880602002604051908101604052809291906000905b8282101561039557838201805461030890610dc0565b80601f016020809104026020016040519081016040528092919081815260200182805461033490610dc0565b80156103815780601f1061035657610100808354040283529160200191610381565b820191906000526020600020905b81548152906001019060200180831161036457829003601f168201915b5050505050815260200190600101906102f2565b50505050905090565b600181600881106103ae57600080fd5b0160009150905080546103c090610dc0565b80601f01602080910402602001604051908101604052809291908181526020018280546103ec90610dc0565b80156104395780601f1061040e57610100808354040283529160200191610439565b820191906000526020600020905b81548152906001019060200180831161041c57829003601f168201915b505050505081565b6000600a60008373ffffffffffffffffffffffffffffffffffffffff1673ffffffffffffffffffffffffffffffffffffffff16815260200190815260200160002060009054906101000a900460ff169050919050565b60606009805480602002602001604051908101604052809291908181526020016000905b8282101561056a57838290600052602060002090600302016040518060600160405290816000820160009054906101000a900460ff1660ff1660ff168152602001600182015481526020016002820160009054906101000a900473ffffffffffffffffffffffffffffffffffffffff1673ffffffffffffffffffffffffffffffffffffffff1673ffffffffffffffffffffffffffffffffffffffff1681525050815260200190600101906104bb565b50505050905090565b600a6020528060005260406000206000915054906101000a900460ff1681565b60018260ff16101580156105ae5750600860ff168260ff1611155b6105ed576040517f08c379a00000000000000000000000000000000000000000000000000000000081526004016105e490610e3d565b60405180910390fd5b600160006001846105fe9190610e8c565b60ff166008811061061257610611610ec0565b5b602091828204019190068282829054906101000a900460ff166106359190610eef565b92506101000a81548160ff021916908360ff160217905550600960405180606001604052808460ff1681526020014281526020018373ffffffffffffffffffffffffffffffffffffffff16815250908060018154018082558091505060019003906000526020600020906003020160009091909190915060008201518160000160006101000a81548160ff021916908360ff1602179055506020820151816001015560408201518160020160006101000a81548173ffffffffffffffffffffffffffffffffffffffff021916908373ffffffffffffffffffffffffffffffffffffffff16021790555050506001600a60008373ffffffffffffffffffffffffffffffffffffffff1673ffffffffffffffffffffffffffffffffffffffff16815260200190815260200160002060008282829054906101000a900460ff1661077c9190610eef565b92506101000a81548160ff021916908360ff1602179055505050565b600060018260ff16101580156107b55750600860ff168260ff1611155b6107f4576040517f08c379a00000000000000000000000000000000000000000000000000000000081526004016107eb90610f72565b60405180910390fd5b60006001836108039190610e8c565b60ff166008811061081757610816610ec0565b5b602091828204019190069054906101000a900460ff169050919050565b6040518061010001604052806008905b60608152602001906001900390816108445790505090565b600080fd5b6000819050919050565b61087481610861565b811461087f57600080fd5b50565b6000813590506108918161086b565b92915050565b6000602082840312156108ad576108ac61085c565b5b60006108bb84828501610882565b91505092915050565b600060ff82169050919050565b6108da816108c4565b82525050565b6108e981610861565b82525050565b600073ffffffffffffffffffffffffffffffffffffffff82169050919050565b600061091a826108ef565b9050919050565b61092a8161090f565b82525050565b600060608201905061094560008301866108d1565b61095260208301856108e0565b61095f6040830184610921565b949350505050565b600060208201905061097c60008301846108d1565b92915050565b600060089050919050565b600081905092915050565b6000819050919050565b600081519050919050565b600082825260208201905092915050565b60005b838110156109dc5780820151818401526020810190506109c1565b838111156109eb576000848401525b50505050565b6000601f19601f8301169050919050565b6000610a0d826109a2565b610a1781856109ad565b9350610a278185602086016109be565b610a30816109f1565b840191505092915050565b6000610a478383610a02565b905092915050565b6000602082019050919050565b6000610a6782610982565b610a71818561098d565b935083602082028501610a8385610998565b8060005b85811015610abf5784840389528151610aa08582610a3b565b9450610aab83610a4f565b925060208a01995050600181019050610a87565b50829750879550505050505092915050565b60006020820190508181036000830152610aeb8184610a5c565b905092915050565b600082825260208201905092915050565b6000610b0f826109a2565b610b198185610af3565b9350610b298185602086016109be565b610b32816109f1565b840191505092915050565b60006020820190508181036000830152610b578184610b04565b905092915050565b610b688161090f565b8114610b7357600080fd5b50565b600081359050610b8581610b5f565b92915050565b600060208284031215610ba157610ba061085c565b5b6000610baf84828501610b76565b91505092915050565b600081519050919050565b600082825260208201905092915050565b6000819050602082019050919050565b610bed816108c4565b82525050565b610bfc81610861565b82525050565b610c0b8161090f565b82525050565b606082016000820151610c276000850182610be4565b506020820151610c3a6020850182610bf3565b506040820151610c4d6040850182610c02565b50505050565b6000610c5f8383610c11565b60608301905092915050565b6000602082019050919050565b6000610c8382610bb8565b610c8d8185610bc3565b9350610c9883610bd4565b8060005b83811015610cc9578151610cb08882610c53565b9750610cbb83610c6b565b925050600181019050610c9c565b5085935050505092915050565b60006020820190508181036000830152610cf08184610c78565b905092915050565b610d01816108c4565b8114610d0c57600080fd5b50565b600081359050610d1e81610cf8565b92915050565b60008060408385031215610d3b57610d3a61085c565b5b6000610d4985828601610d0f565b9250506020610d5a85828601610b76565b9150509250929050565b600060208284031215610d7a57610d7961085c565b5b6000610d8884828501610d0f565b91505092915050565b7f4e487b7100000000000000000000000000000000000000000000000000000000600052602260045260246000fd5b60006002820490506001821680610dd857607f821691505b602082108103610deb57610dea610d91565b5b50919050565b7f506f736974696f6e206d757374206265206265747765656e203120616e642038600082015250565b6000610e27602083610af3565b9150610e3282610df1565b602082019050919050565b60006020820190508181036000830152610e5681610e1a565b9050919050565b7f4e487b7100000000000000000000000000000000000000000000000000000000600052601160045260246000fd5b6000610e97826108c4565b9150610ea2836108c4565b925082821015610eb557610eb4610e5d565b5b828203905092915050565b7f4e487b7100000000000000000000000000000000000000000000000000000000600052603260045260246000fd5b6000610efa826108c4565b9150610f05836108c4565b92508260ff03821115610f1b57610f1a610e5d565b5b828201905092915050565b7f496e76616c69642063616e64696461746520696e646578000000000000000000600082015250565b6000610f5c601783610af3565b9150610f6782610f26565b602082019050919050565b60006020820190508181036000830152610f8b81610f4f565b905091905056fea264697066735822122060fd6391d67ab3438bc3d148958513a9f80ccff515b54149f5c1b2bd44c47d1164736f6c634300080d0033",
  "immutableReferences": {},
  "source": "// SPDX-License-Identifier: MIT\r\npragma solidity >=0.4.22 <0.9.0;\r\n\r\ncontract Vote5 {\r\n    uint8 public constant totalCandidates = 8;  // Fixed number of candidates\r\n    uint8[8] public votes;  // Array to store votes for each candidate\r\n\r\n    // Array to hold candidate names\r\n    string[8] public candidateNames = [\r\n        \"Candidate 1\", \r\n        \"Candidate 2\", \r\n        \"Candidate 3\", \r\n        \"Candidate 4\", \r\n        \"Candidate 5\", \r\n        \"Candidate 6\", \r\n        \"Candidate 7\", \r\n        \"Candidate 8\"\r\n    ];\r\n\r\n    // Structure to store vote details\r\n    struct VoteDetails {\r\n        uint8 candidate;  // Candidate voted for (1 to 8)\r\n        uint256 timestamp;  // Time of vote (block timestamp)\r\n        address esp8266Id;  // Address representing ESP8266 ID (sender's address)\r\n    }\r\n\r\n    // Array to hold all vote records\r\n    VoteDetails[] public voteRecords;\r\n\r\n    // Mapping to track total votes per ESP8266 (by their ID)\r\n    mapping(address => uint8) public totalVotesPerESP;\r\n\r\n    // Function to cast a vote\r\n    function vote(uint8 position, address esp8266Id) public {\r\n        require(position >= 1 && position <= totalCandidates, \"Position must be between 1 and 8\");\r\n\r\n        // Increment the vote for the chosen candidate\r\n        votes[position - 1] += 1;\r\n\r\n        // Add vote details to the record\r\n        voteRecords.push(VoteDetails({\r\n            candidate: position,\r\n            timestamp: block.timestamp,\r\n            esp8266Id: esp8266Id\r\n        }));\r\n\r\n        // Increment the total votes for this ESP8266\r\n        totalVotesPerESP[esp8266Id] += 1;\r\n    }\r\n\r\n    // Function to get total votes for a specific candidate\r\n    function getVotesForCandidate(uint8 candidateIndex) public view returns (uint8) {\r\n        require(candidateIndex >= 1 && candidateIndex <= totalCandidates, \"Invalid candidate index\");\r\n        return votes[candidateIndex - 1];\r\n    }\r\n\r\n    // Function to get total votes for a specific ESP8266\r\n    function getVotesByESP(address espId) public view returns (uint8) {\r\n        return totalVotesPerESP[espId];\r\n    }\r\n\r\n    // Function to get the details of all votes (candidate, timestamp, and ESP ID)\r\n    function getVoteRecords() public view returns (VoteDetails[] memory) {\r\n        return voteRecords;\r\n    }\r\n\r\n    // Function to get candidate names\r\n    function getCandidateNames() public view returns (string[8] memory) {\r\n        return candidateNames;\r\n    }\r\n}\r\n",
  "sourcePath": "C:\\Users\\laksh\\VotingSystem\\contracts\\vote3.sol",
  "compiler": {
    "name": "solc",
    "version": "0.8.13+commit.abaa5c0e.Emscripten.clang"
  },
  "schemaVersion": "3.4.16",
  "updatedAt": "2024-09-13T09:59:56.544Z",
  "networkType": "ethereum",
  "devdoc": {
    "kind": "dev",
    "methods": {},
    "version": 1
  },
  "userdoc": {
    "kind": "user",
    "methods": {},
    "version": 1
  }
}