{
  "contractName": "Vote",
  "abi": [
    {
      "inputs": [
        {
          "internalType": "uint256",
          "name": "",
          "type": "uint256"
        }
      ],
      "name": "votes",
      "outputs": [
        {
          "internalType": "uint8",
          "name": "",
          "type": "uint8"
        }
      ],
      "stateMutability": "view",
      "type": "function"
    },
    {
      "inputs": [
        {
          "internalType": "uint8",
          "name": "position",
          "type": "uint8"
        }
      ],
      "name": "vote",
      "outputs": [],
      "stateMutability": "nonpayable",
      "type": "function"
    },
    {
      "inputs": [],
      "name": "getVotes",
      "outputs": [
        {
          "internalType": "uint8[8]",
          "name": "",
          "type": "uint8[8]"
        }
      ],
      "stateMutability": "view",
      "type": "function"
    }
  ],
  "bytecode": "0x608060405234801561001057600080fd5b50610563806100206000396000f3fe608060405234801561001057600080fd5b50600436106100415760003560e01c80630dc96015146100465780635df8133014610064578063b3f98adc14610094575b600080fd5b61004e6100b0565b60405161005b91906102e0565b60405180910390f35b61007e60048036038101906100799190610337565b610121565b60405161008b9190610373565b60405180910390f35b6100ae60048036038101906100a991906103ba565b61014b565b005b6100b8610205565b6000600880602002604051908101604052809291908260088015610117576020028201916000905b82829054906101000a900460ff1660ff16815260200190600101906020826000010492830192600103820291508084116100e05790505b5050505050905090565b6000816008811061013157600080fd5b60209182820401919006915054906101000a900460ff1681565b60018160ff1610158015610163575060088160ff1611155b6101a2576040517f08c379a000000000000000000000000000000000000000000000000000000000815260040161019990610444565b60405180910390fd5b600160006001836101b39190610493565b60ff16600881106101c7576101c66104c7565b5b602091828204019190068282829054906101000a900460ff166101ea91906104f6565b92506101000a81548160ff021916908360ff16021790555050565b604051806101000160405280600890602082028036833780820191505090505090565b600060089050919050565b600081905092915050565b6000819050919050565b600060ff82169050919050565b61025e81610248565b82525050565b60006102708383610255565b60208301905092915050565b6000602082019050919050565b61029281610228565b61029c8184610233565b92506102a78261023e565b8060005b838110156102d85781516102bf8782610264565b96506102ca8361027c565b9250506001810190506102ab565b505050505050565b6000610100820190506102f66000830184610289565b92915050565b600080fd5b6000819050919050565b61031481610301565b811461031f57600080fd5b50565b6000813590506103318161030b565b92915050565b60006020828403121561034d5761034c6102fc565b5b600061035b84828501610322565b91505092915050565b61036d81610248565b82525050565b60006020820190506103886000830184610364565b92915050565b61039781610248565b81146103a257600080fd5b50565b6000813590506103b48161038e565b92915050565b6000602082840312156103d0576103cf6102fc565b5b60006103de848285016103a5565b91505092915050565b600082825260208201905092915050565b7f506f736974696f6e206d757374206265206265747765656e203120616e642038600082015250565b600061042e6020836103e7565b9150610439826103f8565b602082019050919050565b6000602082019050818103600083015261045d81610421565b9050919050565b7f4e487b7100000000000000000000000000000000000000000000000000000000600052601160045260246000fd5b600061049e82610248565b91506104a983610248565b9250828210156104bc576104bb610464565b5b828203905092915050565b7f4e487b7100000000000000000000000000000000000000000000000000000000600052603260045260246000fd5b600061050182610248565b915061050c83610248565b92508260ff0382111561052257610521610464565b5b82820190509291505056fea2646970667358221220eed8b29f817579c4ea7efc86e722eeefec3e0be02ade851dc76a58344aea4a0164736f6c634300080d0033",
  "immutableReferences": {},
  "source": "// SPDX-License-Identifier: MIT\r\npragma solidity >=0.4.22 <0.9.0;\r\n\r\ncontract Vote {\r\n    uint8[8] public votes;\r\n    function vote(uint8 position) public {\r\n        require(position >= 1 && position <= 8, \"Position must be between 1 and 8\");\r\n        votes[position - 1] += 1;\r\n    }\r\n    function getVotes() public view returns (uint8[8] memory) {\r\n        return votes;\r\n    }\r\n}\r\n",
  "sourcePath": "C:\\Users\\laksh\\VotingSystem\\contracts\\Vote.sol",
  "compiler": {
    "name": "solc",
    "version": "0.8.13+commit.abaa5c0e.Emscripten.clang"
  },
  "schemaVersion": "3.4.16",
  "updatedAt": "2024-09-13T10:00:34.127Z",
  "devdoc": {
    "kind": "dev",
    "methods": {},
    "version": 1
  },
  "userdoc": {
    "kind": "user",
    "methods": {},
    "version": 1
  }
}