{
  "contractName": "Vote3",
  "abi": [
    {
      "inputs": [
        {
          "internalType": "uint256",
          "name": "",
          "type": "uint256"
        }
      ],
      "name": "candidateNames",
      "outputs": [
        {
          "internalType": "string",
          "name": "",
          "type": "string"
        }
      ],
      "stateMutability": "view",
      "type": "function",
      "constant": true
    },
    {
      "inputs": [],
      "name": "totalCandidates",
      "outputs": [
        {
          "internalType": "uint8",
          "name": "",
          "type": "uint8"
        }
      ],
      "stateMutability": "view",
      "type": "function",
      "constant": true
    },
    {
      "inputs": [
        {
          "internalType": "string",
          "name": "",
          "type": "string"
        }
      ],
      "name": "totalVotesPerESP",
      "outputs": [
        {
          "internalType": "uint8",
          "name": "",
          "type": "uint8"
        }
      ],
      "stateMutability": "view",
      "type": "function",
      "constant": true
    },
    {
      "inputs": [
        {
          "internalType": "uint256",
          "name": "",
          "type": "uint256"
        }
      ],
      "name": "voteRecords",
      "outputs": [
        {
          "internalType": "uint8",
          "name": "candidate",
          "type": "uint8"
        },
        {
          "internalType": "uint256",
          "name": "timestamp",
          "type": "uint256"
        },
        {
          "internalType": "string",
          "name": "esp8266Id",
          "type": "string"
        }
      ],
      "stateMutability": "view",
      "type": "function",
      "constant": true
    },
    {
      "inputs": [
        {
          "internalType": "uint256",
          "name": "",
          "type": "uint256"
        }
      ],
      "name": "votes",
      "outputs": [
        {
          "internalType": "uint8",
          "name": "",
          "type": "uint8"
        }
      ],
      "stateMutability": "view",
      "type": "function",
      "constant": true
    },
    {
      "inputs": [
        {
          "internalType": "uint8",
          "name": "position",
          "type": "uint8"
        },
        {
          "internalType": "string",
          "name": "espId",
          "type": "string"
        }
      ],
      "name": "vote",
      "outputs": [],
      "stateMutability": "nonpayable",
      "type": "function"
    },
    {
      "inputs": [
        {
          "internalType": "string",
          "name": "espId",
          "type": "string"
        }
      ],
      "name": "getVotesByESP",
      "outputs": [
        {
          "internalType": "uint8",
          "name": "",
          "type": "uint8"
        }
      ],
      "stateMutability": "view",
      "type": "function",
      "constant": true
    },
    {
      "inputs": [],
      "name": "getVoteRecords",
      "outputs": [
        {
          "components": [
            {
              "internalType": "uint8",
              "name": "candidate",
              "type": "uint8"
            },
            {
              "internalType": "uint256",
              "name": "timestamp",
              "type": "uint256"
            },
            {
              "internalType": "string",
              "name": "esp8266Id",
              "type": "string"
            }
          ],
          "internalType": "struct Vote3.VoteDetails[]",
          "name": "",
          "type": "tuple[]"
        }
      ],
      "stateMutability": "view",
      "type": "function",
      "constant": true
    },
    {
      "inputs": [],
      "name": "getVotes",
      "outputs": [
        {
          "internalType": "uint8[8]",
          "name": "",
          "type": "uint8[8]"
        }
      ],
      "stateMutability": "view",
      "type": "function",
      "constant": true
    },
    {
      "inputs": [],
      "name": "getCandidateNames",
      "outputs": [
        {
          "internalType": "string[8]",
          "name": "",
          "type": "string[8]"
        }
      ],
      "stateMutability": "view",
      "type": "function",
      "constant": true
    }
  ],
  "bytecode": "0x60806040526040518061010001604052806040518060400160405280600b81526020017f43616e646964617465203100000000000000000000000000000000000000000081525081526020016040518060400160405280600b81526020017f43616e646964617465203200000000000000000000000000000000000000000081525081526020016040518060400160405280600b81526020017f43616e646964617465203300000000000000000000000000000000000000000081525081526020016040518060400160405280600b81526020017f43616e646964617465203400000000000000000000000000000000000000000081525081526020016040518060400160405280600b81526020017f43616e646964617465203500000000000000000000000000000000000000000081525081526020016040518060400160405280600b81526020017f43616e646964617465203600000000000000000000000000000000000000000081525081526020016040518060400160405280600b81526020017f43616e646964617465203700000000000000000000000000000000000000000081525081526020016040518060400160405280600b81526020017f43616e64696461746520380000000000000000000000000000000000000000008152508152506001906008620001f89291906200020d565b503480156200020657600080fd5b50620003e9565b826008810192821562000254579160200282015b82811115620002535782518290805190602001906200024292919062000267565b509160200191906001019062000221565b5b509050620002639190620002f8565b5090565b8280546200027590620003b4565b90600052602060002090601f016020900481019282620002995760008555620002e5565b82601f10620002b457805160ff1916838001178555620002e5565b82800160010185558215620002e5579182015b82811115620002e4578251825591602001919060010190620002c7565b5b509050620002f4919062000320565b5090565b5b808211156200031c57600081816200031291906200033f565b50600101620002f9565b5090565b5b808211156200033b57600081600090555060010162000321565b5090565b5080546200034d90620003b4565b6000825580601f1062000361575062000382565b601f01602090049060005260206000209081019062000381919062000320565b5b50565b7f4e487b7100000000000000000000000000000000000000000000000000000000600052602260045260246000fd5b60006002820490506001821680620003cd57607f821691505b602082108103620003e357620003e262000385565b5b50919050565b61122380620003f96000396000f3fe608060405234801561001057600080fd5b506004361061009e5760003560e01c80635df81330116100665780635df813301461017157806372b9d616146101a15780638287e42f146101bf578063a812b2ca146101ef578063b224c40a1461020d5761009e565b80630dc96015146100a357806318b42417146100c1578063268b8c69146100f15780633866965c146101235780634606c15b14610141575b600080fd5b6100ab610229565b6040516100b891906109d5565b60405180910390f35b6100db60048036038101906100d69190610b4b565b61029a565b6040516100e89190610ba3565b60405180910390f35b61010b60048036038101906101069190610bf4565b6102d0565b60405161011a93929190610cb8565b60405180910390f35b61012b61039f565b6040516101389190610ba3565b60405180910390f35b61015b60048036038101906101569190610b4b565b6103a4565b6040516101689190610ba3565b60405180910390f35b61018b60048036038101906101869190610bf4565b6103d9565b6040516101989190610ba3565b60405180910390f35b6101a9610403565b6040516101b69190610df6565b60405180910390f35b6101d960048036038101906101d49190610bf4565b6104d0565b6040516101e69190610e18565b60405180910390f35b6101f7610573565b6040516102049190610f5b565b60405180910390f35b61022760048036038101906102229190610fa9565b61068b565b005b61023161082f565b6000600880602002604051908101604052809291908260088015610290576020028201916000905b82829054906101000a900460ff1660ff16815260200190600101906020826000010492830192600103820291508084116102595790505b5050505050905090565b600a818051602081018201805184825260208301602085012081835280955050505050506000915054906101000a900460ff1681565b600981815481106102e057600080fd5b90600052602060002090600302016000915090508060000160009054906101000a900460ff169080600101549080600201805461031c90611034565b80601f016020809104026020016040519081016040528092919081815260200182805461034890611034565b80156103955780601f1061036a57610100808354040283529160200191610395565b820191906000526020600020905b81548152906001019060200180831161037857829003601f168201915b5050505050905083565b600881565b6000600a826040516103b691906110a1565b908152602001604051809103902060009054906101000a900460ff169050919050565b600081600881106103e957600080fd5b60209182820401919006915054906101000a900460ff1681565b61040b610852565b6001600880602002604051908101604052809291906000905b828210156104c757838201805461043a90611034565b80601f016020809104026020016040519081016040528092919081815260200182805461046690611034565b80156104b35780601f10610488576101008083540402835291602001916104b3565b820191906000526020600020905b81548152906001019060200180831161049657829003601f168201915b505050505081526020019060010190610424565b50505050905090565b600181600881106104e057600080fd5b0160009150905080546104f290611034565b80601f016020809104026020016040519081016040528092919081815260200182805461051e90611034565b801561056b5780601f106105405761010080835404028352916020019161056b565b820191906000526020600020905b81548152906001019060200180831161054e57829003601f168201915b505050505081565b60606009805480602002602001604051908101604052809291908181526020016000905b8282101561068257838290600052602060002090600302016040518060600160405290816000820160009054906101000a900460ff1660ff1660ff168152602001600182015481526020016002820180546105f190611034565b80601f016020809104026020016040519081016040528092919081815260200182805461061d90611034565b801561066a5780601f1061063f5761010080835404028352916020019161066a565b820191906000526020600020905b81548152906001019060200180831161064d57829003601f168201915b50505050508152505081526020019060010190610597565b50505050905090565b60018260ff16101580156106a65750600860ff168260ff1611155b6106e5576040517f08c379a00000000000000000000000000000000000000000000000000000000081526004016106dc90611104565b60405180910390fd5b600160006001846106f69190611153565b60ff166008811061070a57610709611187565b5b602091828204019190068282829054906101000a900460ff1661072d91906111b6565b92506101000a81548160ff021916908360ff160217905550600960405180606001604052808460ff16815260200142815260200183815250908060018154018082558091505060019003906000526020600020906003020160009091909190915060008201518160000160006101000a81548160ff021916908360ff1602179055506020820151816001015560408201518160020190805190602001906107d592919061087a565b5050506001600a826040516107ea91906110a1565b908152602001604051809103902060008282829054906101000a900460ff1661081391906111b6565b92506101000a81548160ff021916908360ff1602179055505050565b604051806101000160405280600890602082028036833780820191505090505090565b6040518061010001604052806008905b60608152602001906001900390816108625790505090565b82805461088690611034565b90600052602060002090601f0160209004810192826108a857600085556108ef565b82601f106108c157805160ff19168380011785556108ef565b828001600101855582156108ef579182015b828111156108ee5782518255916020019190600101906108d3565b5b5090506108fc9190610900565b5090565b5b80821115610919576000816000905550600101610901565b5090565b600060089050919050565b600081905092915050565b6000819050919050565b600060ff82169050919050565b6109538161093d565b82525050565b6000610965838361094a565b60208301905092915050565b6000602082019050919050565b6109878161091d565b6109918184610928565b925061099c82610933565b8060005b838110156109cd5781516109b48782610959565b96506109bf83610971565b9250506001810190506109a0565b505050505050565b6000610100820190506109eb600083018461097e565b92915050565b6000604051905090565b600080fd5b600080fd5b600080fd5b600080fd5b6000601f19601f8301169050919050565b7f4e487b7100000000000000000000000000000000000000000000000000000000600052604160045260246000fd5b610a5882610a0f565b810181811067ffffffffffffffff82111715610a7757610a76610a20565b5b80604052505050565b6000610a8a6109f1565b9050610a968282610a4f565b919050565b600067ffffffffffffffff821115610ab657610ab5610a20565b5b610abf82610a0f565b9050602081019050919050565b82818337600083830152505050565b6000610aee610ae984610a9b565b610a80565b905082815260208101848484011115610b0a57610b09610a0a565b5b610b15848285610acc565b509392505050565b600082601f830112610b3257610b31610a05565b5b8135610b42848260208601610adb565b91505092915050565b600060208284031215610b6157610b606109fb565b5b600082013567ffffffffffffffff811115610b7f57610b7e610a00565b5b610b8b84828501610b1d565b91505092915050565b610b9d8161093d565b82525050565b6000602082019050610bb86000830184610b94565b92915050565b6000819050919050565b610bd181610bbe565b8114610bdc57600080fd5b50565b600081359050610bee81610bc8565b92915050565b600060208284031215610c0a57610c096109fb565b5b6000610c1884828501610bdf565b91505092915050565b610c2a81610bbe565b82525050565b600081519050919050565b600082825260208201905092915050565b60005b83811015610c6a578082015181840152602081019050610c4f565b83811115610c79576000848401525b50505050565b6000610c8a82610c30565b610c948185610c3b565b9350610ca4818560208601610c4c565b610cad81610a0f565b840191505092915050565b6000606082019050610ccd6000830186610b94565b610cda6020830185610c21565b8181036040830152610cec8184610c7f565b9050949350505050565b600060089050919050565b600081905092915050565b6000819050919050565b600082825260208201905092915050565b6000610d3282610c30565b610d3c8185610d16565b9350610d4c818560208601610c4c565b610d5581610a0f565b840191505092915050565b6000610d6c8383610d27565b905092915050565b6000602082019050919050565b6000610d8c82610cf6565b610d968185610d01565b935083602082028501610da885610d0c565b8060005b85811015610de45784840389528151610dc58582610d60565b9450610dd083610d74565b925060208a01995050600181019050610dac565b50829750879550505050505092915050565b60006020820190508181036000830152610e108184610d81565b905092915050565b60006020820190508181036000830152610e328184610c7f565b905092915050565b600081519050919050565b600082825260208201905092915050565b6000819050602082019050919050565b610e6f81610bbe565b82525050565b6000606083016000830151610e8d600086018261094a565b506020830151610ea06020860182610e66565b5060408301518482036040860152610eb88282610d27565b9150508091505092915050565b6000610ed18383610e75565b905092915050565b6000602082019050919050565b6000610ef182610e3a565b610efb8185610e45565b935083602082028501610f0d85610e56565b8060005b85811015610f495784840389528151610f2a8582610ec5565b9450610f3583610ed9565b925060208a01995050600181019050610f11565b50829750879550505050505092915050565b60006020820190508181036000830152610f758184610ee6565b905092915050565b610f868161093d565b8114610f9157600080fd5b50565b600081359050610fa381610f7d565b92915050565b60008060408385031215610fc057610fbf6109fb565b5b6000610fce85828601610f94565b925050602083013567ffffffffffffffff811115610fef57610fee610a00565b5b610ffb85828601610b1d565b9150509250929050565b7f4e487b7100000000000000000000000000000000000000000000000000000000600052602260045260246000fd5b6000600282049050600182168061104c57607f821691505b60208210810361105f5761105e611005565b5b50919050565b600081905092915050565b600061107b82610c30565b6110858185611065565b9350611095818560208601610c4c565b80840191505092915050565b60006110ad8284611070565b915081905092915050565b7f506f736974696f6e206d757374206265206265747765656e203120616e642038600082015250565b60006110ee602083610c3b565b91506110f9826110b8565b602082019050919050565b6000602082019050818103600083015261111d816110e1565b9050919050565b7f4e487b7100000000000000000000000000000000000000000000000000000000600052601160045260246000fd5b600061115e8261093d565b91506111698361093d565b92508282101561117c5761117b611124565b5b828203905092915050565b7f4e487b7100000000000000000000000000000000000000000000000000000000600052603260045260246000fd5b60006111c18261093d565b91506111cc8361093d565b92508260ff038211156111e2576111e1611124565b5b82820190509291505056fea26469706673582212206420a210756b87e86688a83be9b5c4cdb1df57f57f4c3cfc1ed60591a2e7dfaf64736f6c634300080d0033",
  "immutableReferences": {},
  "source": "// SPDX-License-Identifier: MIT\r\npragma solidity >=0.4.22 <0.9.0;\r\n\r\ncontract Vote3 {\r\n    uint8 public constant totalCandidates = 8;  // Fixed number of candidates\r\n    uint8[8] public votes;  // Array to store votes for each candidate\r\n\r\n    // Array to hold candidate names\r\n    string[8] public candidateNames = [\r\n        \"Candidate 1\", \r\n        \"Candidate 2\", \r\n        \"Candidate 3\", \r\n        \"Candidate 4\", \r\n        \"Candidate 5\", \r\n        \"Candidate 6\", \r\n        \"Candidate 7\", \r\n        \"Candidate 8\"\r\n    ];\r\n\r\n    // Structure to store vote details\r\n    struct VoteDetails {\r\n        uint8 candidate;  // Candidate voted for (1 to 8)\r\n        uint256 timestamp;  // Time of vote (block timestamp)\r\n        string esp8266Id;  // ESP8266 ID (e.g., \"espEVM1\")\r\n    }\r\n\r\n    // Array to hold all vote records\r\n    VoteDetails[] public voteRecords;\r\n\r\n    // Mapping to track total votes per ESP8266 (by their ID)\r\n    mapping(string => uint8) public totalVotesPerESP;\r\n\r\n    // Function to cast a vote\r\n    function vote(uint8 position, string memory espId) public {\r\n        require(position >= 1 && position <= totalCandidates, \"Position must be between 1 and 8\");\r\n\r\n        // Increment the vote for the chosen candidate\r\n        votes[position - 1] += 1;\r\n\r\n        // Add vote details to the record\r\n        voteRecords.push(VoteDetails({\r\n            candidate: position,\r\n            timestamp: block.timestamp,\r\n            esp8266Id: espId\r\n        }));\r\n\r\n        // Increment the total votes for this ESP8266\r\n        totalVotesPerESP[espId] += 1;\r\n    }\r\n\r\n    // Function to get total votes for a specific ESP8266\r\n    function getVotesByESP(string memory espId) public view returns (uint8) {\r\n        return totalVotesPerESP[espId];\r\n    }\r\n\r\n    // Function to get the details of all votes (candidate, timestamp, and ESP ID)\r\n    function getVoteRecords() public view returns (VoteDetails[] memory) {\r\n        return voteRecords;\r\n    }\r\n\r\n    // Function to get total votes for all candidates\r\n    function getVotes() public view returns (uint8[8] memory) {\r\n        return votes;\r\n    }\r\n\r\n    // Function to get candidate names\r\n    function getCandidateNames() public view returns (string[8] memory) {\r\n        return candidateNames;\r\n    }\r\n}\r\n",
  "sourcePath": "C:\\Users\\laksh\\VotingSystem\\contracts\\Vote.sol",
  "compiler": {
    "name": "solc",
    "version": "0.8.13+commit.abaa5c0e.Emscripten.clang"
  },
  "schemaVersion": "3.4.16",
  "updatedAt": "2024-09-13T09:29:39.158Z",
  "networkType": "ethereum",
  "devdoc": {
    "kind": "dev",
    "methods": {},
    "version": 1
  },
  "userdoc": {
    "kind": "user",
    "methods": {},
    "version": 1
  }
}