{
  "contractName": "Vote1",
  "abi": [
    {
      "inputs": [
        {
          "internalType": "uint256",
          "name": "",
          "type": "uint256"
        }
      ],
      "name": "candidateNames",
      "outputs": [
        {
          "internalType": "string",
          "name": "",
          "type": "string"
        }
      ],
      "stateMutability": "view",
      "type": "function"
    },
    {
      "inputs": [],
      "name": "totalCandidates",
      "outputs": [
        {
          "internalType": "uint8",
          "name": "",
          "type": "uint8"
        }
      ],
      "stateMutability": "view",
      "type": "function"
    },
    {
      "inputs": [
        {
          "internalType": "string",
          "name": "",
          "type": "string"
        }
      ],
      "name": "totalVotesPerESP",
      "outputs": [
        {
          "internalType": "uint8",
          "name": "",
          "type": "uint8"
        }
      ],
      "stateMutability": "view",
      "type": "function"
    },
    {
      "inputs": [
        {
          "internalType": "uint256",
          "name": "",
          "type": "uint256"
        }
      ],
      "name": "voteRecords",
      "outputs": [
        {
          "internalType": "uint8",
          "name": "candidate",
          "type": "uint8"
        },
        {
          "internalType": "uint256",
          "name": "timestamp",
          "type": "uint256"
        },
        {
          "internalType": "string",
          "name": "esp8266Id",
          "type": "string"
        }
      ],
      "stateMutability": "view",
      "type": "function"
    },
    {
      "inputs": [
        {
          "internalType": "uint256",
          "name": "",
          "type": "uint256"
        }
      ],
      "name": "votes",
      "outputs": [
        {
          "internalType": "uint8",
          "name": "",
          "type": "uint8"
        }
      ],
      "stateMutability": "view",
      "type": "function"
    },
    {
      "inputs": [
        {
          "internalType": "uint8",
          "name": "position",
          "type": "uint8"
        },
        {
          "internalType": "string",
          "name": "esp8266Id",
          "type": "string"
        }
      ],
      "name": "vote",
      "outputs": [],
      "stateMutability": "nonpayable",
      "type": "function"
    },
    {
      "inputs": [
        {
          "internalType": "string",
          "name": "espId",
          "type": "string"
        }
      ],
      "name": "getVotesByESP",
      "outputs": [
        {
          "internalType": "uint8",
          "name": "",
          "type": "uint8"
        }
      ],
      "stateMutability": "view",
      "type": "function"
    },
    {
      "inputs": [],
      "name": "getVoteRecords",
      "outputs": [
        {
          "components": [
            {
              "internalType": "uint8",
              "name": "candidate",
              "type": "uint8"
            },
            {
              "internalType": "uint256",
              "name": "timestamp",
              "type": "uint256"
            },
            {
              "internalType": "string",
              "name": "esp8266Id",
              "type": "string"
            }
          ],
          "internalType": "struct Vote1.VoteDetails[]",
          "name": "",
          "type": "tuple[]"
        }
      ],
      "stateMutability": "view",
      "type": "function"
    },
    {
      "inputs": [],
      "name": "getVotes",
      "outputs": [
        {
          "internalType": "uint8[8]",
          "name": "",
          "type": "uint8[8]"
        }
      ],
      "stateMutability": "view",
      "type": "function"
    },
    {
      "inputs": [],
      "name": "getCandidateNames",
      "outputs": [
        {
          "internalType": "string[8]",
          "name": "",
          "type": "string[8]"
        }
      ],
      "stateMutability": "view",
      "type": "function"
    },
    {
      "inputs": [],
      "name": "getCandidateVotes",
      "outputs": [
        {
          "internalType": "string[8]",
          "name": "",
          "type": "string[8]"
        },
        {
          "internalType": "uint8[8]",
          "name": "",
          "type": "uint8[8]"
        }
      ],
      "stateMutability": "view",
      "type": "function"
    }
  ],
  "bytecode": "0x60806040526040518061010001604052806040518060400160405280600b81526020017f43616e646964617465203100000000000000000000000000000000000000000081525081526020016040518060400160405280600b81526020017f43616e646964617465203200000000000000000000000000000000000000000081525081526020016040518060400160405280600b81526020017f43616e646964617465203300000000000000000000000000000000000000000081525081526020016040518060400160405280600b81526020017f43616e646964617465203400000000000000000000000000000000000000000081525081526020016040518060400160405280600b81526020017f43616e646964617465203500000000000000000000000000000000000000000081525081526020016040518060400160405280600b81526020017f43616e646964617465203600000000000000000000000000000000000000000081525081526020016040518060400160405280600b81526020017f43616e646964617465203700000000000000000000000000000000000000000081525081526020016040518060400160405280600b81526020017f43616e64696461746520380000000000000000000000000000000000000000008152508152506001906008620001f89291906200020d565b503480156200020657600080fd5b50620003e9565b826008810192821562000254579160200282015b82811115620002535782518290805190602001906200024292919062000267565b509160200191906001019062000221565b5b509050620002639190620002f8565b5090565b8280546200027590620003b4565b90600052602060002090601f016020900481019282620002995760008555620002e5565b82601f10620002b457805160ff1916838001178555620002e5565b82800160010185558215620002e5579182015b82811115620002e4578251825591602001919060010190620002c7565b5b509050620002f4919062000320565b5090565b5b808211156200031c57600081816200031291906200033f565b50600101620002f9565b5090565b5b808211156200033b57600081600090555060010162000321565b5090565b5080546200034d90620003b4565b6000825580601f1062000361575062000382565b601f01602090049060005260206000209081019062000381919062000320565b5b50565b7f4e487b7100000000000000000000000000000000000000000000000000000000600052602260045260246000fd5b60006002820490506001821680620003cd57607f821691505b602082108103620003e357620003e262000385565b5b50919050565b6113c080620003f96000396000f3fe608060405234801561001057600080fd5b50600436106100a95760003560e01c80634606c15b116100715780634606c15b1461016b5780635df813301461019b57806372b9d616146101cb5780638287e42f146101e9578063a812b2ca14610219578063b224c40a14610237576100a9565b80630dc96015146100ae57806318b42417146100cc578063268b8c69146100fc57806329ab36ec1461012e5780633866965c1461014d575b600080fd5b6100b6610253565b6040516100c39190610b41565b60405180910390f35b6100e660048036038101906100e19190610cb7565b6102c4565b6040516100f39190610d0f565b60405180910390f35b61011660048036038101906101119190610d60565b6102fa565b60405161012593929190610e24565b60405180910390f35b6101366103c9565b604051610144929190610f62565b60405180910390f35b61015561050b565b6040516101629190610d0f565b60405180910390f35b61018560048036038101906101809190610cb7565b610510565b6040516101929190610d0f565b60405180910390f35b6101b560048036038101906101b09190610d60565b610545565b6040516101c29190610d0f565b60405180910390f35b6101d361056f565b6040516101e09190610f93565b60405180910390f35b61020360048036038101906101fe9190610d60565b61063c565b6040516102109190610fb5565b60405180910390f35b6102216106df565b60405161022e91906110f8565b60405180910390f35b610251600480360381019061024c9190611146565b6107f7565b005b61025b61099b565b60006008806020026040519081016040528092919082600880156102ba576020028201916000905b82829054906101000a900460ff1660ff16815260200190600101906020826000010492830192600103820291508084116102835790505b5050505050905090565b600a818051602081018201805184825260208301602085012081835280955050505050506000915054906101000a900460ff1681565b6009818154811061030a57600080fd5b90600052602060002090600302016000915090508060000160009054906101000a900460ff1690806001015490806002018054610346906111d1565b80601f0160208091040260200160405190810160405280929190818152602001828054610372906111d1565b80156103bf5780601f10610394576101008083540402835291602001916103bf565b820191906000526020600020905b8154815290600101906020018083116103a257829003601f168201915b5050505050905083565b6103d16109be565b6103d961099b565b6001600081600880602002604051908101604052809291906000905b8282101561049857838201805461040b906111d1565b80601f0160208091040260200160405190810160405280929190818152602001828054610437906111d1565b80156104845780601f1061045957610100808354040283529160200191610484565b820191906000526020600020905b81548152906001019060200180831161046757829003601f168201915b5050505050815260200190600101906103f5565b505050509150806008806020026040519081016040528092919082600880156104fc576020028201916000905b82829054906101000a900460ff1660ff16815260200190600101906020826000010492830192600103820291508084116104c55790505b50505050509050915091509091565b600881565b6000600a82604051610522919061123e565b908152602001604051809103902060009054906101000a900460ff169050919050565b6000816008811061055557600080fd5b60209182820401919006915054906101000a900460ff1681565b6105776109be565b6001600880602002604051908101604052809291906000905b828210156106335783820180546105a6906111d1565b80601f01602080910402602001604051908101604052809291908181526020018280546105d2906111d1565b801561061f5780601f106105f45761010080835404028352916020019161061f565b820191906000526020600020905b81548152906001019060200180831161060257829003601f168201915b505050505081526020019060010190610590565b50505050905090565b6001816008811061064c57600080fd5b01600091509050805461065e906111d1565b80601f016020809104026020016040519081016040528092919081815260200182805461068a906111d1565b80156106d75780601f106106ac576101008083540402835291602001916106d7565b820191906000526020600020905b8154815290600101906020018083116106ba57829003601f168201915b505050505081565b60606009805480602002602001604051908101604052809291908181526020016000905b828210156107ee57838290600052602060002090600302016040518060600160405290816000820160009054906101000a900460ff1660ff1660ff1681526020016001820154815260200160028201805461075d906111d1565b80601f0160208091040260200160405190810160405280929190818152602001828054610789906111d1565b80156107d65780601f106107ab576101008083540402835291602001916107d6565b820191906000526020600020905b8154815290600101906020018083116107b957829003601f168201915b50505050508152505081526020019060010190610703565b50505050905090565b60018260ff16101580156108125750600860ff168260ff1611155b610851576040517f08c379a0000000000000000000000000000000000000000000000000000000008152600401610848906112a1565b60405180910390fd5b6001600060018461086291906112f0565b60ff166008811061087657610875611324565b5b602091828204019190068282829054906101000a900460ff166108999190611353565b92506101000a81548160ff021916908360ff160217905550600960405180606001604052808460ff16815260200142815260200183815250908060018154018082558091505060019003906000526020600020906003020160009091909190915060008201518160000160006101000a81548160ff021916908360ff1602179055506020820151816001015560408201518160020190805190602001906109419291906109e6565b5050506001600a82604051610956919061123e565b908152602001604051809103902060008282829054906101000a900460ff1661097f9190611353565b92506101000a81548160ff021916908360ff1602179055505050565b604051806101000160405280600890602082028036833780820191505090505090565b6040518061010001604052806008905b60608152602001906001900390816109ce5790505090565b8280546109f2906111d1565b90600052602060002090601f016020900481019282610a145760008555610a5b565b82601f10610a2d57805160ff1916838001178555610a5b565b82800160010185558215610a5b579182015b82811115610a5a578251825591602001919060010190610a3f565b5b509050610a689190610a6c565b5090565b5b80821115610a85576000816000905550600101610a6d565b5090565b600060089050919050565b600081905092915050565b6000819050919050565b600060ff82169050919050565b610abf81610aa9565b82525050565b6000610ad18383610ab6565b60208301905092915050565b6000602082019050919050565b610af381610a89565b610afd8184610a94565b9250610b0882610a9f565b8060005b83811015610b39578151610b208782610ac5565b9650610b2b83610add565b925050600181019050610b0c565b505050505050565b600061010082019050610b576000830184610aea565b92915050565b6000604051905090565b600080fd5b600080fd5b600080fd5b600080fd5b6000601f19601f8301169050919050565b7f4e487b7100000000000000000000000000000000000000000000000000000000600052604160045260246000fd5b610bc482610b7b565b810181811067ffffffffffffffff82111715610be357610be2610b8c565b5b80604052505050565b6000610bf6610b5d565b9050610c028282610bbb565b919050565b600067ffffffffffffffff821115610c2257610c21610b8c565b5b610c2b82610b7b565b9050602081019050919050565b82818337600083830152505050565b6000610c5a610c5584610c07565b610bec565b905082815260208101848484011115610c7657610c75610b76565b5b610c81848285610c38565b509392505050565b600082601f830112610c9e57610c9d610b71565b5b8135610cae848260208601610c47565b91505092915050565b600060208284031215610ccd57610ccc610b67565b5b600082013567ffffffffffffffff811115610ceb57610cea610b6c565b5b610cf784828501610c89565b91505092915050565b610d0981610aa9565b82525050565b6000602082019050610d246000830184610d00565b92915050565b6000819050919050565b610d3d81610d2a565b8114610d4857600080fd5b50565b600081359050610d5a81610d34565b92915050565b600060208284031215610d7657610d75610b67565b5b6000610d8484828501610d4b565b91505092915050565b610d9681610d2a565b82525050565b600081519050919050565b600082825260208201905092915050565b60005b83811015610dd6578082015181840152602081019050610dbb565b83811115610de5576000848401525b50505050565b6000610df682610d9c565b610e008185610da7565b9350610e10818560208601610db8565b610e1981610b7b565b840191505092915050565b6000606082019050610e396000830186610d00565b610e466020830185610d8d565b8181036040830152610e588184610deb565b9050949350505050565b600060089050919050565b600081905092915050565b6000819050919050565b600082825260208201905092915050565b6000610e9e82610d9c565b610ea88185610e82565b9350610eb8818560208601610db8565b610ec181610b7b565b840191505092915050565b6000610ed88383610e93565b905092915050565b6000602082019050919050565b6000610ef882610e62565b610f028185610e6d565b935083602082028501610f1485610e78565b8060005b85811015610f505784840389528151610f318582610ecc565b9450610f3c83610ee0565b925060208a01995050600181019050610f18565b50829750879550505050505092915050565b6000610120820190508181036000830152610f7d8185610eed565b9050610f8c6020830184610aea565b9392505050565b60006020820190508181036000830152610fad8184610eed565b905092915050565b60006020820190508181036000830152610fcf8184610deb565b905092915050565b600081519050919050565b600082825260208201905092915050565b6000819050602082019050919050565b61100c81610d2a565b82525050565b600060608301600083015161102a6000860182610ab6565b50602083015161103d6020860182611003565b50604083015184820360408601526110558282610e93565b9150508091505092915050565b600061106e8383611012565b905092915050565b6000602082019050919050565b600061108e82610fd7565b6110988185610fe2565b9350836020820285016110aa85610ff3565b8060005b858110156110e657848403895281516110c78582611062565b94506110d283611076565b925060208a019950506001810190506110ae565b50829750879550505050505092915050565b600060208201905081810360008301526111128184611083565b905092915050565b61112381610aa9565b811461112e57600080fd5b50565b6000813590506111408161111a565b92915050565b6000806040838503121561115d5761115c610b67565b5b600061116b85828601611131565b925050602083013567ffffffffffffffff81111561118c5761118b610b6c565b5b61119885828601610c89565b9150509250929050565b7f4e487b7100000000000000000000000000000000000000000000000000000000600052602260045260246000fd5b600060028204905060018216806111e957607f821691505b6020821081036111fc576111fb6111a2565b5b50919050565b600081905092915050565b600061121882610d9c565b6112228185611202565b9350611232818560208601610db8565b80840191505092915050565b600061124a828461120d565b915081905092915050565b7f506f736974696f6e206d757374206265206265747765656e203120616e642038600082015250565b600061128b602083610da7565b915061129682611255565b602082019050919050565b600060208201905081810360008301526112ba8161127e565b9050919050565b7f4e487b7100000000000000000000000000000000000000000000000000000000600052601160045260246000fd5b60006112fb82610aa9565b915061130683610aa9565b925082821015611319576113186112c1565b5b828203905092915050565b7f4e487b7100000000000000000000000000000000000000000000000000000000600052603260045260246000fd5b600061135e82610aa9565b915061136983610aa9565b92508260ff0382111561137f5761137e6112c1565b5b82820190509291505056fea2646970667358221220665ee4f6f4cd4bad7ee183c4d0770b07d242117621de173da2bee2c356fcfde264736f6c634300080d0033",
  "immutableReferences": {},
  "source": "// SPDX-License-Identifier: MIT\r\npragma solidity >=0.4.22 <0.9.0;\r\n\r\ncontract Vote1 {\r\n    uint8 public constant totalCandidates = 8;\r\n    uint8[8] public votes;\r\n\r\n    string[8] public candidateNames = [\r\n        \"Candidate 1\",\r\n        \"Candidate 2\",\r\n        \"Candidate 3\",\r\n        \"Candidate 4\",\r\n        \"Candidate 5\",\r\n        \"Candidate 6\",\r\n        \"Candidate 7\",\r\n        \"Candidate 8\"\r\n    ];\r\n\r\n    struct VoteDetails {\r\n        uint8 candidate;\r\n        uint256 timestamp;\r\n        string esp8266Id;\r\n    }\r\n\r\n    VoteDetails[] public voteRecords;\r\n\r\n    mapping(string => uint8) public totalVotesPerESP;\r\n\r\n    function vote(uint8 position, string memory esp8266Id) public {\r\n        require(position >= 1 && position <= totalCandidates, \"Position must be between 1 and 8\");\r\n\r\n        votes[position - 1] += 1;\r\n\r\n        voteRecords.push(VoteDetails({\r\n            candidate: position,\r\n            timestamp: block.timestamp,\r\n            esp8266Id: esp8266Id\r\n        }));\r\n\r\n        totalVotesPerESP[esp8266Id] += 1;\r\n    }\r\n\r\n    function getVotesByESP(string memory espId) public view returns (uint8) {\r\n        return totalVotesPerESP[espId];\r\n    }\r\n\r\n    function getVoteRecords() public view returns (VoteDetails[] memory) {\r\n        return voteRecords;\r\n    }\r\n\r\n    function getVotes() public view returns (uint8[8] memory) {\r\n        return votes;\r\n    }\r\n\r\n    function getCandidateNames() public view returns (string[8] memory) {\r\n        return candidateNames;\r\n    }\r\n\r\n    function getCandidateVotes() public view returns (string[8] memory, uint8[8] memory) {\r\n        return (candidateNames, votes);\r\n    }\r\n}\r\n",
  "sourcePath": "C:\\Users\\laksh\\VotingSystem\\contracts\\vote3.sol",
  "compiler": {
    "name": "solc",
    "version": "0.8.13+commit.abaa5c0e.Emscripten.clang"
  },
  "schemaVersion": "3.4.16",
  "updatedAt": "2024-09-13T09:56:11.027Z",
  "devdoc": {
    "kind": "dev",
    "methods": {},
    "version": 1
  },
  "userdoc": {
    "kind": "user",
    "methods": {},
    "version": 1
  }
}