{
  "contractName": "Vote2",
  "abi": [
    {
      "inputs": [
        {
          "internalType": "uint256",
          "name": "",
          "type": "uint256"
        }
      ],
      "name": "candidateNames",
      "outputs": [
        {
          "internalType": "string",
          "name": "",
          "type": "string"
        }
      ],
      "stateMutability": "view",
      "type": "function",
      "constant": true
    },
    {
      "inputs": [],
      "name": "totalCandidates",
      "outputs": [
        {
          "internalType": "uint8",
          "name": "",
          "type": "uint8"
        }
      ],
      "stateMutability": "view",
      "type": "function",
      "constant": true
    },
    {
      "inputs": [
        {
          "internalType": "address",
          "name": "",
          "type": "address"
        }
      ],
      "name": "totalVotesPerESP",
      "outputs": [
        {
          "internalType": "uint8",
          "name": "",
          "type": "uint8"
        }
      ],
      "stateMutability": "view",
      "type": "function",
      "constant": true
    },
    {
      "inputs": [
        {
          "internalType": "uint256",
          "name": "",
          "type": "uint256"
        }
      ],
      "name": "votes",
      "outputs": [
        {
          "internalType": "uint8",
          "name": "",
          "type": "uint8"
        }
      ],
      "stateMutability": "view",
      "type": "function",
      "constant": true
    },
    {
      "inputs": [
        {
          "internalType": "uint8",
          "name": "",
          "type": "uint8"
        },
        {
          "internalType": "address",
          "name": "",
          "type": "address"
        },
        {
          "internalType": "uint256",
          "name": "",
          "type": "uint256"
        }
      ],
      "name": "votesByCandidateAndESP",
      "outputs": [
        {
          "internalType": "uint8",
          "name": "candidate",
          "type": "uint8"
        },
        {
          "internalType": "uint256",
          "name": "timestamp",
          "type": "uint256"
        },
        {
          "internalType": "address",
          "name": "esp8266Id",
          "type": "address"
        }
      ],
      "stateMutability": "view",
      "type": "function",
      "constant": true
    },
    {
      "inputs": [
        {
          "internalType": "uint8",
          "name": "position",
          "type": "uint8"
        }
      ],
      "name": "vote",
      "outputs": [],
      "stateMutability": "nonpayable",
      "type": "function"
    },
    {
      "inputs": [
        {
          "internalType": "address",
          "name": "espId",
          "type": "address"
        }
      ],
      "name": "getVotesByESP",
      "outputs": [
        {
          "internalType": "uint8",
          "name": "",
          "type": "uint8"
        }
      ],
      "stateMutability": "view",
      "type": "function",
      "constant": true
    },
    {
      "inputs": [
        {
          "internalType": "uint8",
          "name": "candidate",
          "type": "uint8"
        },
        {
          "internalType": "address",
          "name": "espId",
          "type": "address"
        }
      ],
      "name": "getVoteRecordsByCandidateAndESP",
      "outputs": [
        {
          "components": [
            {
              "internalType": "uint8",
              "name": "candidate",
              "type": "uint8"
            },
            {
              "internalType": "uint256",
              "name": "timestamp",
              "type": "uint256"
            },
            {
              "internalType": "address",
              "name": "esp8266Id",
              "type": "address"
            }
          ],
          "internalType": "struct Vote2.VoteDetails[]",
          "name": "",
          "type": "tuple[]"
        }
      ],
      "stateMutability": "view",
      "type": "function",
      "constant": true
    },
    {
      "inputs": [],
      "name": "getVotes",
      "outputs": [
        {
          "internalType": "uint8[8]",
          "name": "",
          "type": "uint8[8]"
        }
      ],
      "stateMutability": "view",
      "type": "function",
      "constant": true
    },
    {
      "inputs": [],
      "name": "getCandidateNames",
      "outputs": [
        {
          "internalType": "string[8]",
          "name": "",
          "type": "string[8]"
        }
      ],
      "stateMutability": "view",
      "type": "function",
      "constant": true
    }
  ],
  "bytecode": "0x60806040526040518061010001604052806040518060400160405280600b81526020017f43616e646964617465203100000000000000000000000000000000000000000081525081526020016040518060400160405280600b81526020017f43616e646964617465203200000000000000000000000000000000000000000081525081526020016040518060400160405280600b81526020017f43616e646964617465203300000000000000000000000000000000000000000081525081526020016040518060400160405280600b81526020017f43616e646964617465203400000000000000000000000000000000000000000081525081526020016040518060400160405280600b81526020017f43616e646964617465203500000000000000000000000000000000000000000081525081526020016040518060400160405280600b81526020017f43616e646964617465203600000000000000000000000000000000000000000081525081526020016040518060400160405280600b81526020017f43616e646964617465203700000000000000000000000000000000000000000081525081526020016040518060400160405280600b81526020017f43616e64696461746520380000000000000000000000000000000000000000008152508152506001906008620001f89291906200020d565b503480156200020657600080fd5b50620003e9565b826008810192821562000254579160200282015b82811115620002535782518290805190602001906200024292919062000267565b509160200191906001019062000221565b5b509050620002639190620002f8565b5090565b8280546200027590620003b4565b90600052602060002090601f016020900481019282620002995760008555620002e5565b82601f10620002b457805160ff1916838001178555620002e5565b82800160010185558215620002e5579182015b82811115620002e4578251825591602001919060010190620002c7565b5b509050620002f4919062000320565b5090565b5b808211156200031c57600081816200031291906200033f565b50600101620002f9565b5090565b5b808211156200033b57600081600090555060010162000321565b5090565b5080546200034d90620003b4565b6000825580601f1062000361575062000382565b601f01602090049060005260206000209081019062000381919062000320565b5b50565b7f4e487b7100000000000000000000000000000000000000000000000000000000600052602260045260246000fd5b60006002820490506001821680620003cd57607f821691505b602082108103620003e357620003e262000385565b5b50919050565b61120f80620003f96000396000f3fe608060405234801561001057600080fd5b506004361061009e5760003560e01c806372b9d6161161006657806372b9d616146101715780638287e42f1461018f5780638e8710e2146101bf578063b3f98adc146101ef578063b5001c861461020b5761009e565b80630807a0d6146100a35780630dc96015146100d35780633866965c146100f15780635df813301461010f578063640c73091461013f575b600080fd5b6100bd60048036038101906100b89190610a0e565b61023b565b6040516100ca9190610b76565b60405180910390f35b6100db6103c8565b6040516100e89190610c34565b60405180910390f35b6100f9610439565b6040516101069190610c5f565b60405180910390f35b61012960048036038101906101249190610ca6565b61043e565b6040516101369190610c5f565b60405180910390f35b61015960048036038101906101549190610cd3565b610468565b60405161016893929190610d44565b60405180910390f35b6101796104e9565b6040516101869190610eca565b60405180910390f35b6101a960048036038101906101a49190610ca6565b6105b6565b6040516101b69190610f36565b60405180910390f35b6101d960048036038101906101d49190610f58565b610659565b6040516101e69190610c5f565b60405180910390f35b61020960048036038101906102049190610f85565b6106af565b005b61022560048036038101906102209190610f58565b610907565b6040516102329190610c5f565b60405180910390f35b606060018360ff16101580156102585750600860ff168360ff1611155b610297576040517f08c379a000000000000000000000000000000000000000000000000000000000815260040161028e90611024565b60405180910390fd5b600960008460ff1660ff16815260200190815260200160002060008373ffffffffffffffffffffffffffffffffffffffff1673ffffffffffffffffffffffffffffffffffffffff168152602001908152602001600020805480602002602001604051908101604052809291908181526020016000905b828210156103bc57838290600052602060002090600302016040518060600160405290816000820160009054906101000a900460ff1660ff1660ff168152602001600182015481526020016002820160009054906101000a900473ffffffffffffffffffffffffffffffffffffffff1673ffffffffffffffffffffffffffffffffffffffff1673ffffffffffffffffffffffffffffffffffffffff16815250508152602001906001019061030d565b50505050905092915050565b6103d0610927565b600060088060200260405190810160405280929190826008801561042f576020028201916000905b82829054906101000a900460ff1660ff16815260200190600101906020826000010492830192600103820291508084116103f85790505b5050505050905090565b600881565b6000816008811061044e57600080fd5b60209182820401919006915054906101000a900460ff1681565b6009602052826000526040600020602052816000526040600020818154811061049057600080fd5b906000526020600020906003020160009250925050508060000160009054906101000a900460ff16908060010154908060020160009054906101000a900473ffffffffffffffffffffffffffffffffffffffff16905083565b6104f161094a565b6001600880602002604051908101604052809291906000905b828210156105ad57838201805461052090611073565b80601f016020809104026020016040519081016040528092919081815260200182805461054c90611073565b80156105995780601f1061056e57610100808354040283529160200191610599565b820191906000526020600020905b81548152906001019060200180831161057c57829003601f168201915b50505050508152602001906001019061050a565b50505050905090565b600181600881106105c657600080fd5b0160009150905080546105d890611073565b80601f016020809104026020016040519081016040528092919081815260200182805461060490611073565b80156106515780601f1061062657610100808354040283529160200191610651565b820191906000526020600020905b81548152906001019060200180831161063457829003601f168201915b505050505081565b6000600a60008373ffffffffffffffffffffffffffffffffffffffff1673ffffffffffffffffffffffffffffffffffffffff16815260200190815260200160002060009054906101000a900460ff169050919050565b60018160ff16101580156106ca5750600860ff168160ff1611155b610709576040517f08c379a0000000000000000000000000000000000000000000000000000000008152600401610700906110f0565b60405180910390fd5b6001600060018361071a919061113f565b60ff166008811061072e5761072d611173565b5b602091828204019190068282829054906101000a900460ff1661075191906111a2565b92506101000a81548160ff021916908360ff160217905550600960008260ff1660ff16815260200190815260200160002060003373ffffffffffffffffffffffffffffffffffffffff1673ffffffffffffffffffffffffffffffffffffffff16815260200190815260200160002060405180606001604052808360ff1681526020014281526020013373ffffffffffffffffffffffffffffffffffffffff16815250908060018154018082558091505060019003906000526020600020906003020160009091909190915060008201518160000160006101000a81548160ff021916908360ff1602179055506020820151816001015560408201518160020160006101000a81548173ffffffffffffffffffffffffffffffffffffffff021916908373ffffffffffffffffffffffffffffffffffffffff16021790555050506001600a60003373ffffffffffffffffffffffffffffffffffffffff1673ffffffffffffffffffffffffffffffffffffffff16815260200190815260200160002060008282829054906101000a900460ff166108ec91906111a2565b92506101000a81548160ff021916908360ff16021790555050565b600a6020528060005260406000206000915054906101000a900460ff1681565b604051806101000160405280600890602082028036833780820191505090505090565b6040518061010001604052806008905b606081526020019060019003908161095a5790505090565b600080fd5b600060ff82169050919050565b61098d81610977565b811461099857600080fd5b50565b6000813590506109aa81610984565b92915050565b600073ffffffffffffffffffffffffffffffffffffffff82169050919050565b60006109db826109b0565b9050919050565b6109eb816109d0565b81146109f657600080fd5b50565b600081359050610a08816109e2565b92915050565b60008060408385031215610a2557610a24610972565b5b6000610a338582860161099b565b9250506020610a44858286016109f9565b9150509250929050565b600081519050919050565b600082825260208201905092915050565b6000819050602082019050919050565b610a8381610977565b82525050565b6000819050919050565b610a9c81610a89565b82525050565b610aab816109d0565b82525050565b606082016000820151610ac76000850182610a7a565b506020820151610ada6020850182610a93565b506040820151610aed6040850182610aa2565b50505050565b6000610aff8383610ab1565b60608301905092915050565b6000602082019050919050565b6000610b2382610a4e565b610b2d8185610a59565b9350610b3883610a6a565b8060005b83811015610b69578151610b508882610af3565b9750610b5b83610b0b565b925050600181019050610b3c565b5085935050505092915050565b60006020820190508181036000830152610b908184610b18565b905092915050565b600060089050919050565b600081905092915050565b6000819050919050565b6000610bc48383610a7a565b60208301905092915050565b6000602082019050919050565b610be681610b98565b610bf08184610ba3565b9250610bfb82610bae565b8060005b83811015610c2c578151610c138782610bb8565b9650610c1e83610bd0565b925050600181019050610bff565b505050505050565b600061010082019050610c4a6000830184610bdd565b92915050565b610c5981610977565b82525050565b6000602082019050610c746000830184610c50565b92915050565b610c8381610a89565b8114610c8e57600080fd5b50565b600081359050610ca081610c7a565b92915050565b600060208284031215610cbc57610cbb610972565b5b6000610cca84828501610c91565b91505092915050565b600080600060608486031215610cec57610ceb610972565b5b6000610cfa8682870161099b565b9350506020610d0b868287016109f9565b9250506040610d1c86828701610c91565b9150509250925092565b610d2f81610a89565b82525050565b610d3e816109d0565b82525050565b6000606082019050610d596000830186610c50565b610d666020830185610d26565b610d736040830184610d35565b949350505050565b600060089050919050565b600081905092915050565b6000819050919050565b600081519050919050565b600082825260208201905092915050565b60005b83811015610dd5578082015181840152602081019050610dba565b83811115610de4576000848401525b50505050565b6000601f19601f8301169050919050565b6000610e0682610d9b565b610e108185610da6565b9350610e20818560208601610db7565b610e2981610dea565b840191505092915050565b6000610e408383610dfb565b905092915050565b6000602082019050919050565b6000610e6082610d7b565b610e6a8185610d86565b935083602082028501610e7c85610d91565b8060005b85811015610eb85784840389528151610e998582610e34565b9450610ea483610e48565b925060208a01995050600181019050610e80565b50829750879550505050505092915050565b60006020820190508181036000830152610ee48184610e55565b905092915050565b600082825260208201905092915050565b6000610f0882610d9b565b610f128185610eec565b9350610f22818560208601610db7565b610f2b81610dea565b840191505092915050565b60006020820190508181036000830152610f508184610efd565b905092915050565b600060208284031215610f6e57610f6d610972565b5b6000610f7c848285016109f9565b91505092915050565b600060208284031215610f9b57610f9a610972565b5b6000610fa98482850161099b565b91505092915050565b7f43616e646964617465206d757374206265206265747765656e203120616e642060008201527f3800000000000000000000000000000000000000000000000000000000000000602082015250565b600061100e602183610eec565b915061101982610fb2565b604082019050919050565b6000602082019050818103600083015261103d81611001565b9050919050565b7f4e487b7100000000000000000000000000000000000000000000000000000000600052602260045260246000fd5b6000600282049050600182168061108b57607f821691505b60208210810361109e5761109d611044565b5b50919050565b7f506f736974696f6e206d757374206265206265747765656e203120616e642038600082015250565b60006110da602083610eec565b91506110e5826110a4565b602082019050919050565b60006020820190508181036000830152611109816110cd565b9050919050565b7f4e487b7100000000000000000000000000000000000000000000000000000000600052601160045260246000fd5b600061114a82610977565b915061115583610977565b92508282101561116857611167611110565b5b828203905092915050565b7f4e487b7100000000000000000000000000000000000000000000000000000000600052603260045260246000fd5b60006111ad82610977565b91506111b883610977565b92508260ff038211156111ce576111cd611110565b5b82820190509291505056fea26469706673582212208fa1d4232fbc60855049ce6b68f723e8815762884f01e471c25b34b0b27eeaf564736f6c634300080d0033",
  "immutableReferences": {},
  "source": "// SPDX-License-Identifier: MIT\r\npragma solidity >=0.4.22 <0.9.0;\r\n\r\ncontract Vote2 {\r\n    uint8 public constant totalCandidates = 8;  // Fixed number of candidates\r\n    uint8[8] public votes;  // Array to store votes for each candidate\r\n\r\n    // Array to hold candidate names\r\n    string[8] public candidateNames = [\r\n        \"Candidate 1\", \r\n        \"Candidate 2\", \r\n        \"Candidate 3\", \r\n        \"Candidate 4\", \r\n        \"Candidate 5\", \r\n        \"Candidate 6\", \r\n        \"Candidate 7\", \r\n        \"Candidate 8\"\r\n    ];\r\n\r\n    // Structure to store vote details\r\n    struct VoteDetails {\r\n        uint8 candidate;  // Candidate voted for (1 to 8)\r\n        uint256 timestamp;  // Time of vote (block timestamp)\r\n        address esp8266Id;  // Address representing ESP8266 ID (sender's address)\r\n    }\r\n\r\n    // Mapping to store votes by candidate and ESP8266 ID\r\n    mapping(uint8 => mapping(address => VoteDetails[])) public votesByCandidateAndESP;\r\n\r\n    // Mapping to track total votes per ESP8266 (by their ID)\r\n    mapping(address => uint8) public totalVotesPerESP;\r\n\r\n    // Function to cast a vote\r\n    function vote(uint8 position) public {\r\n        require(position >= 1 && position <= totalCandidates, \"Position must be between 1 and 8\");\r\n\r\n        // Increment the vote for the chosen candidate\r\n        votes[position - 1] += 1;\r\n\r\n        // Add vote details to the record for the specific candidate and ESP8266 ID\r\n        votesByCandidateAndESP[position][msg.sender].push(VoteDetails({\r\n            candidate: position,\r\n            timestamp: block.timestamp,\r\n            esp8266Id: msg.sender\r\n        }));\r\n\r\n        // Increment the total votes for this ESP8266\r\n        totalVotesPerESP[msg.sender] += 1;\r\n    }\r\n\r\n    // Function to get total votes for a specific ESP8266\r\n    function getVotesByESP(address espId) public view returns (uint8) {\r\n        return totalVotesPerESP[espId];\r\n    }\r\n\r\n    // Function to get the details of all votes for a specific candidate by ESP8266 ID\r\n    function getVoteRecordsByCandidateAndESP(uint8 candidate, address espId) public view returns (VoteDetails[] memory) {\r\n        require(candidate >= 1 && candidate <= totalCandidates, \"Candidate must be between 1 and 8\");\r\n        return votesByCandidateAndESP[candidate][espId];\r\n    }\r\n\r\n    // Function to get total votes for all candidates\r\n    function getVotes() public view returns (uint8[8] memory) {\r\n        return votes;\r\n    }\r\n\r\n    // Function to get candidate names\r\n    function getCandidateNames() public view returns (string[8] memory) {\r\n        return candidateNames;\r\n    }\r\n}\r\n",
  "sourcePath": "C:\\Users\\laksh\\VotingSystem\\contracts\\Vote.sol",
  "compiler": {
    "name": "solc",
    "version": "0.8.13+commit.abaa5c0e.Emscripten.clang"
  },
  "schemaVersion": "3.4.16",
  "updatedAt": "2024-09-13T09:24:43.987Z",
  "networkType": "ethereum",
  "devdoc": {
    "kind": "dev",
    "methods": {},
    "version": 1
  },
  "userdoc": {
    "kind": "user",
    "methods": {},
    "version": 1
  }
}